{
  "contractName": "supply_Chain",
  "abi": [
    {
      "constant": false,
      "inputs": [
        {
          "name": "p_id",
          "type": "uint256"
        }
      ],
      "name": "getParticipant",
      "outputs": [
        {
          "name": "",
          "type": "string"
        },
        {
          "name": "",
          "type": "address"
        },
        {
          "name": "",
          "type": "string"
        }
      ],
      "payable": false,
      "type": "function"
    },
    {
      "constant": true,
      "inputs": [],
      "name": "_p_id",
      "outputs": [
        {
          "name": "",
          "type": "uint256"
        }
      ],
      "payable": false,
      "type": "function"
    },
    {
      "constant": false,
      "inputs": [
        {
          "name": "prod_id",
          "type": "uint256"
        }
      ],
      "name": "getProduct_details",
      "outputs": [
        {
          "name": "",
          "type": "string"
        },
        {
          "name": "",
          "type": "uint256"
        },
        {
          "name": "",
          "type": "string"
        },
        {
          "name": "",
          "type": "string"
        },
        {
          "name": "",
          "type": "address"
        },
        {
          "name": "",
          "type": "uint256"
        }
      ],
      "payable": false,
      "type": "function"
    },
    {
      "constant": true,
      "inputs": [
        {
          "name": "",
          "type": "uint256"
        }
      ],
      "name": "participants",
      "outputs": [
        {
          "name": "_userName",
          "type": "string"
        },
        {
          "name": "_passWord",
          "type": "string"
        },
        {
          "name": "_address",
          "type": "address"
        },
        {
          "name": "_userType",
          "type": "string"
        }
      ],
      "payable": false,
      "type": "function"
    },
    {
      "constant": false,
      "inputs": [
        {
          "name": "uid",
          "type": "uint256"
        },
        {
          "name": "uname",
          "type": "string"
        },
        {
          "name": "pass",
          "type": "string"
        },
        {
          "name": "utype",
          "type": "string"
        }
      ],
      "name": "userLogin",
      "outputs": [
        {
          "name": "",
          "type": "bool"
        }
      ],
      "payable": false,
      "type": "function"
    },
    {
      "constant": true,
      "inputs": [],
      "name": "_t_id",
      "outputs": [
        {
          "name": "",
          "type": "uint256"
        }
      ],
      "payable": false,
      "type": "function"
    },
    {
      "constant": true,
      "inputs": [],
      "name": "_u_id",
      "outputs": [
        {
          "name": "",
          "type": "uint256"
        }
      ],
      "payable": false,
      "type": "function"
    },
    {
      "constant": true,
      "inputs": [
        {
          "name": "",
          "type": "uint256"
        }
      ],
      "name": "products",
      "outputs": [
        {
          "name": "_product_name",
          "type": "string"
        },
        {
          "name": "_product_cost",
          "type": "uint256"
        },
        {
          "name": "_product_specs",
          "type": "string"
        },
        {
          "name": "_product_review",
          "type": "string"
        },
        {
          "name": "_product_owner",
          "type": "address"
        },
        {
          "name": "_manufacture_date",
          "type": "uint256"
        }
      ],
      "payable": false,
      "type": "function"
    },
    {
      "constant": false,
      "inputs": [
        {
          "name": "name",
          "type": "string"
        },
        {
          "name": "pass",
          "type": "string"
        },
        {
          "name": "u_add",
          "type": "address"
        },
        {
          "name": "utype",
          "type": "string"
        }
      ],
      "name": "createParticipant",
      "outputs": [
        {
          "name": "",
          "type": "uint256"
        }
      ],
      "payable": false,
      "type": "function"
    },
    {
      "constant": true,
      "inputs": [
        {
          "name": "",
          "type": "uint256"
        }
      ],
      "name": "tracks",
      "outputs": [
        {
          "name": "_product_id",
          "type": "uint256"
        },
        {
          "name": "_owner_id",
          "type": "uint256"
        },
        {
          "name": "_product_owner",
          "type": "address"
        },
        {
          "name": "_timeStamp",
          "type": "uint256"
        }
      ],
      "payable": false,
      "type": "function"
    },
    {
      "constant": false,
      "inputs": [
        {
          "name": "user1_id",
          "type": "uint256"
        },
        {
          "name": "user2_id",
          "type": "uint256"
        },
        {
          "name": "prod_id",
          "type": "uint256"
        }
      ],
      "name": "transferOwnership_product",
      "outputs": [
        {
          "name": "",
          "type": "bool"
        }
      ],
      "payable": false,
      "type": "function"
    },
    {
      "constant": false,
      "inputs": [
        {
          "name": "own_id",
          "type": "uint256"
        },
        {
          "name": "name",
          "type": "string"
        },
        {
          "name": "p_cost",
          "type": "uint256"
        },
        {
          "name": "p_specs",
          "type": "string"
        },
        {
          "name": "p_review",
          "type": "string"
        }
      ],
      "name": "newProduct",
      "outputs": [
        {
          "name": "",
          "type": "uint256"
        }
      ],
      "payable": false,
      "type": "function"
    },
    {
      "constant": false,
      "inputs": [
        {
          "name": "trck_id",
          "type": "uint256"
        }
      ],
      "name": "getProduct_trackindex",
      "outputs": [
        {
          "name": "",
          "type": "uint256"
        },
        {
          "name": "",
          "type": "uint256"
        },
        {
          "name": "",
          "type": "address"
        },
        {
          "name": "",
          "type": "uint256"
        },
        {
          "name": "",
          "type": "string"
        },
        {
          "name": "",
          "type": "string"
        }
      ],
      "payable": false,
      "type": "function"
    }
  ],
  "bytecode": "0x6060604052600060005560006001556000600255341561001b57fe5b5b6124bd8061002b6000396000f300606060405236156100c3576000357c0100000000000000000000000000000000000000000000000000000000900463ffffffff1680631b9db2ef146100c557806326d20f94146102195780633248cfc41461023f57806335c1d3491461041b5780634bdff7a314610616578063567b3a7a146107175780635fe73f3f1461073d5780637acc0b201461076357806389138c001461096c578063a2e3458614610a7f578063a6822b2a14610af4578063ad51c3d614610b3e578063fcd48d3114610c44575bfe5b34156100cd57fe5b6100e36004808035906020019091905050610dad565b60405180806020018473ffffffffffffffffffffffffffffffffffffffff1673ffffffffffffffffffffffffffffffffffffffff16815260200180602001838103835286818151815260200191508051906020019080838360008314610168575b80518252602083111561016857602082019150602081019050602083039250610144565b505050905090810190601f1680156101945780820380516001836020036101000a031916815260200191505b508381038252848181518152602001915080519060200190808383600083146101dc575b8051825260208311156101dc576020820191506020810190506020830392506101b8565b505050905090810190601f1680156102085780820380516001836020036101000a031916815260200191505b509550505050505060405180910390f35b341561022157fe5b610229610f68565b6040518082815260200191505060405180910390f35b341561024757fe5b61025d6004808035906020019091905050610f6e565b604051808060200187815260200180602001806020018673ffffffffffffffffffffffffffffffffffffffff1673ffffffffffffffffffffffffffffffffffffffff16815260200185815260200184810384528a8181518152602001915080519060200190808383600083146102f2575b8051825260208311156102f2576020820191506020810190506020830392506102ce565b505050905090810190601f16801561031e5780820380516001836020036101000a031916815260200191505b50848103835288818151815260200191508051906020019080838360008314610366575b80518252602083111561036657602082019150602081019050602083039250610342565b505050905090810190601f1680156103925780820380516001836020036101000a031916815260200191505b508481038252878181518152602001915080519060200190808383600083146103da575b8051825260208311156103da576020820191506020810190506020830392506103b6565b505050905090810190601f1680156104065780820380516001836020036101000a031916815260200191505b50995050505050505050505060405180910390f35b341561042357fe5b610439600480803590602001909190505061121d565b6040518080602001806020018573ffffffffffffffffffffffffffffffffffffffff1673ffffffffffffffffffffffffffffffffffffffff168152602001806020018481038452888181546001816001161561010002031660029004815260200191508054600181600116156101000203166002900480156104fc5780601f106104d1576101008083540402835291602001916104fc565b820191906000526020600020905b8154815290600101906020018083116104df57829003601f168201915b505084810383528781815460018160011615610100020316600290048152602001915080546001816001161561010002031660029004801561057f5780601f106105545761010080835404028352916020019161057f565b820191906000526020600020905b81548152906001019060200180831161056257829003601f168201915b50508481038252858181546001816001161561010002031660029004815260200191508054600181600116156101000203166002900480156106025780601f106105d757610100808354040283529160200191610602565b820191906000526020600020905b8154815290600101906020018083116105e557829003601f168201915b505097505050505050505060405180910390f35b341561061e57fe5b6106fd600480803590602001909190803590602001908201803590602001908080601f0160208091040260200160405190810160405280939291908181526020018383808284378201915050505050509190803590602001908201803590602001908080601f0160208091040260200160405190810160405280939291908181526020018383808284378201915050505050509190803590602001908201803590602001908080601f0160208091040260200160405190810160405280939291908181526020018383808284378201915050505050509190505061126a565b604051808215151515815260200191505060405180910390f35b341561071f57fe5b61072761154b565b6040518082815260200191505060405180910390f35b341561074557fe5b61074d611551565b6040518082815260200191505060405180910390f35b341561076b57fe5b6107816004808035906020019091905050611557565b604051808060200187815260200180602001806020018673ffffffffffffffffffffffffffffffffffffffff1673ffffffffffffffffffffffffffffffffffffffff16815260200185815260200184810384528a8181546001816001161561010002031660029004815260200191508054600181600116156101000203166002900480156108505780601f1061082557610100808354040283529160200191610850565b820191906000526020600020905b81548152906001019060200180831161083357829003601f168201915b50508481038352888181546001816001161561010002031660029004815260200191508054600181600116156101000203166002900480156108d35780601f106108a8576101008083540402835291602001916108d3565b820191906000526020600020905b8154815290600101906020018083116108b657829003601f168201915b50508481038252878181546001816001161561010002031660029004815260200191508054600181600116156101000203166002900480156109565780601f1061092b57610100808354040283529160200191610956565b820191906000526020600020905b81548152906001019060200180831161093957829003601f168201915b5050995050505050505050505060405180910390f35b341561097457fe5b610a69600480803590602001908201803590602001908080601f0160208091040260200160405190810160405280939291908181526020018383808284378201915050505050509190803590602001908201803590602001908080601f0160208091040260200160405190810160405280939291908181526020018383808284378201915050505050509190803573ffffffffffffffffffffffffffffffffffffffff1690602001909190803590602001908201803590602001908080601f016020809104026020016040519081016040528093929190818152602001838380828437820191505050505050919050506115b0565b6040518082815260200191505060405180910390f35b3415610a8757fe5b610a9d60048080359060200190919050506116aa565b604051808581526020018481526020018373ffffffffffffffffffffffffffffffffffffffff1673ffffffffffffffffffffffffffffffffffffffff16815260200182815260200194505050505060405180910390f35b3415610afc57fe5b610b2460048080359060200190919080359060200190919080359060200190919050506116fa565b604051808215151515815260200191505060405180910390f35b3415610b4657fe5b610c2e600480803590602001909190803590602001908201803590602001908080601f0160208091040260200160405190810160405280939291908181526020018383808284378201915050505050509190803590602001909190803590602001908201803590602001908080601f0160208091040260200160405190810160405280939291908181526020018383808284378201915050505050509190803590602001908201803590602001908080601f01602080910402602001604051908101604052809392919081815260200183838082843782019150505050505091905050611fd0565b6040518082815260200191505060405180910390f35b3415610c4c57fe5b610c626004808035906020019091905050612202565b604051808781526020018681526020018573ffffffffffffffffffffffffffffffffffffffff1673ffffffffffffffffffffffffffffffffffffffff1681526020018481526020018060200180602001838103835285818151815260200191508051906020019080838360008314610cf9575b805182526020831115610cf957602082019150602081019050602083039250610cd5565b505050905090810190601f168015610d255780820380516001836020036101000a031916815260200191505b50838103825284818151815260200191508051906020019080838360008314610d6d575b805182526020831115610d6d57602082019150602081019050602083039250610d49565b505050905090810190601f168015610d995780820380516001836020036101000a031916815260200191505b509850505050505050505060405180910390f35b610db56123d8565b6000610dbf6123d8565b600560008581526020019081526020016000206000016005600086815260200190815260200160002060020160009054906101000a900473ffffffffffffffffffffffffffffffffffffffff1660056000878152602001908152602001600020600301828054600181600116156101000203166002900480601f016020809104026020016040519081016040528092919081815260200182805460018160011615610100020316600290048015610eb75780601f10610e8c57610100808354040283529160200191610eb7565b820191906000526020600020905b815481529060010190602001808311610e9a57829003601f168201915b50505050509250808054600181600116156101000203166002900480601f016020809104026020016040519081016040528092919081815260200182805460018160011615610100020316600290048015610f535780601f10610f2857610100808354040283529160200191610f53565b820191906000526020600020905b815481529060010190602001808311610f3657829003601f168201915b505050505090509250925092505b9193909250565b60005481565b610f766123d8565b6000610f806123d8565b610f886123d8565b60006000600460008881526020019081526020016000206000016004600089815260200190815260200160002060010154600460008a8152602001908152602001600020600201600460008b8152602001908152602001600020600301600460008c815260200190815260200160002060040160009054906101000a900473ffffffffffffffffffffffffffffffffffffffff16600460008d815260200190815260200160002060050154858054600181600116156101000203166002900480601f0160208091040260200160405190810160405280929190818152602001828054600181600116156101000203166002900480156110c85780601f1061109d576101008083540402835291602001916110c8565b820191906000526020600020905b8154815290600101906020018083116110ab57829003601f168201915b50505050509550838054600181600116156101000203166002900480601f0160208091040260200160405190810160405280929190818152602001828054600181600116156101000203166002900480156111645780601f1061113957610100808354040283529160200191611164565b820191906000526020600020905b81548152906001019060200180831161114757829003601f168201915b50505050509350828054600181600116156101000203166002900480601f0160208091040260200160405190810160405280929190818152602001828054600181600116156101000203166002900480156112005780601f106111d557610100808354040283529160200191611200565b820191906000526020600020905b8154815290600101906020018083116111e357829003601f168201915b505050505092509550955095509550955095505b91939550919395565b6005602052806000526040600020600091509050806000019080600101908060020160009054906101000a900473ffffffffffffffffffffffffffffffffffffffff169080600301905084565b6000816040518082805190602001908083835b602083106112a0578051825260208201915060208101905060208303925061127d565b6001836020036101000a0380198251168184511680821785525050505050509050019150506040518091039020600019166005600087815260200190815260200160002060030160405180828054600181600116156101000203166002900480156113425780601f10611320576101008083540402835291820191611342565b820191906000526020600020905b81548152906001019060200180831161132e575b5050915050604051809103902060001916141561153e57836040518082805190602001908083835b6020831061138d578051825260208201915060208101905060208303925061136a565b6001836020036101000a03801982511681845116808217855250505050505090500191505060405180910390206000191660056000878152602001908152602001600020600001604051808280546001816001161561010002031660029004801561142f5780601f1061140d57610100808354040283529182019161142f565b820191906000526020600020905b81548152906001019060200180831161141b575b5050915050604051809103902060001916141561153d57826040518082805190602001908083835b6020831061147a5780518252602082019150602081019050602083039250611457565b6001836020036101000a03801982511681845116808217855250505050505090500191505060405180910390206000191660056000878152602001908152602001600020600101604051808280546001816001161561010002031660029004801561151c5780601f106114fa57610100808354040283529182019161151c565b820191906000526020600020905b815481529060010190602001808311611508575b5050915050604051809103902060001916141561153c5760019050611543565b5b5b600090505b949350505050565b60025481565b60015481565b60046020528060005260406000206000915090508060000190806001015490806002019080600301908060040160009054906101000a900473ffffffffffffffffffffffffffffffffffffffff16908060050154905086565b6000600060016000815480929190600101919050559050856005600083815260200190815260200160002060000190805190602001906115f19291906123ec565b508460056000838152602001908152602001600020600101908051906020019061161c9291906123ec565b50836005600083815260200190815260200160002060020160006101000a81548173ffffffffffffffffffffffffffffffffffffffff021916908373ffffffffffffffffffffffffffffffffffffffff1602179055508260056000838152602001908152602001600020600301908051906020019061169c9291906123ec565b508091505b50949350505050565b60036020528060005260406000206000915090508060000154908060010154908060020160009054906101000a900473ffffffffffffffffffffffffffffffffffffffff16908060030154905084565b6000600060006000846004600082815260200190815260200160002060040160009054906101000a900473ffffffffffffffffffffffffffffffffffffffff1673ffffffffffffffffffffffffffffffffffffffff163373ffffffffffffffffffffffffffffffffffffffff161415156117745760006000fd5b6005600089815260200190815260200160002093506005600088815260200190815260200160002092506002600081548092919060010191905055915060405180807f4d616e7566616374757265720000000000000000000000000000000000000000815250600c01905060405180910390206000191684600301604051808280546001816001161561010002031660029004801561184a5780601f1061182857610100808354040283529182019161184a565b820191906000526020600020905b815481529060010190602001808311611836575b505091505060405180910390206000191614801561190f575060405180807f537570706c69657200000000000000000000000000000000000000000000000081525060080190506040518091039020600019168360030160405180828054600181600116156101000203166002900480156118fc5780601f106118da5761010080835404028352918201916118fc565b820191906000526020600020905b8154815290600101906020018083116118e8575b5050915050604051809103902060001916145b15611a60578560036000848152602001908152602001600020600001819055508260020160009054906101000a900473ffffffffffffffffffffffffffffffffffffffff166003600084815260200190815260200160002060020160006101000a81548173ffffffffffffffffffffffffffffffffffffffff021916908373ffffffffffffffffffffffffffffffffffffffff1602179055508660036000848152602001908152602001600020600101819055504260036000848152602001908152602001600020600301819055508260020160009054906101000a900473ffffffffffffffffffffffffffffffffffffffff166004600088815260200190815260200160002060040160006101000a81548173ffffffffffffffffffffffffffffffffffffffff021916908373ffffffffffffffffffffffffffffffffffffffff16021790555060019450611fc4565b60405180807f537570706c6965720000000000000000000000000000000000000000000000008152506008019050604051809103902060001916846003016040518082805460018160011615610100020316600290048015611af95780601f10611ad7576101008083540402835291820191611af9565b820191906000526020600020905b815481529060010190602001808311611ae5575b5050915050604051809103902060001916148015611bbe575060405180807f537570706c6965720000000000000000000000000000000000000000000000008152506008019050604051809103902060001916836003016040518082805460018160011615610100020316600290048015611bab5780601f10611b89576101008083540402835291820191611bab565b820191906000526020600020905b815481529060010190602001808311611b97575b5050915050604051809103902060001916145b15611d0f578560036000848152602001908152602001600020600001819055508260020160009054906101000a900473ffffffffffffffffffffffffffffffffffffffff166003600084815260200190815260200160002060020160006101000a81548173ffffffffffffffffffffffffffffffffffffffff021916908373ffffffffffffffffffffffffffffffffffffffff1602179055508660036000848152602001908152602001600020600101819055504260036000848152602001908152602001600020600301819055508260020160009054906101000a900473ffffffffffffffffffffffffffffffffffffffff166004600088815260200190815260200160002060040160006101000a81548173ffffffffffffffffffffffffffffffffffffffff021916908373ffffffffffffffffffffffffffffffffffffffff16021790555060019450611fc4565b60405180807f537570706c6965720000000000000000000000000000000000000000000000008152506008019050604051809103902060001916846003016040518082805460018160011615610100020316600290048015611da85780601f10611d86576101008083540402835291820191611da8565b820191906000526020600020905b815481529060010190602001808311611d94575b5050915050604051809103902060001916148015611e6d575060405180807f437573746f6d65720000000000000000000000000000000000000000000000008152506008019050604051809103902060001916836003016040518082805460018160011615610100020316600290048015611e5a5780601f10611e38576101008083540402835291820191611e5a565b820191906000526020600020905b815481529060010190602001808311611e46575b5050915050604051809103902060001916145b15611fbe578560036000848152602001908152602001600020600001819055508260020160009054906101000a900473ffffffffffffffffffffffffffffffffffffffff166003600084815260200190815260200160002060020160006101000a81548173ffffffffffffffffffffffffffffffffffffffff021916908373ffffffffffffffffffffffffffffffffffffffff1602179055508660036000848152602001908152602001600020600101819055504260036000848152602001908152602001600020600301819055508260020160009054906101000a900473ffffffffffffffffffffffffffffffffffffffff166004600088815260200190815260200160002060040160006101000a81548173ffffffffffffffffffffffffffffffffffffffff021916908373ffffffffffffffffffffffffffffffffffffffff16021790555060019450611fc4565b5b600094505b5b505050509392505050565b6000600060405180807f4d616e7566616374757265720000000000000000000000000000000000000000815250600c01905060405180910390206000191660056000898152602001908152602001600020600301604051808280546001816001161561010002031660029004801561207f5780601f1061205d57610100808354040283529182019161207f565b820191906000526020600020905b81548152906001019060200180831161206b575b505091505060405180910390206000191614156121f35760006000815480929190600101919050559050856004600083815260200190815260200160002060000190805190602001906120d39291906123ec565b50846004600083815260200190815260200160002060010181905550836004600083815260200190815260200160002060020190805190602001906121199291906123ec565b50826004600083815260200190815260200160002060030190805190602001906121449291906123ec565b506005600088815260200190815260200160002060020160009054906101000a900473ffffffffffffffffffffffffffffffffffffffff166004600083815260200190815260200160002060040160006101000a81548173ffffffffffffffffffffffffffffffffffffffff021916908373ffffffffffffffffffffffffffffffffffffffff1602179055504260046000838152602001908152602001600020600501819055508091506121f8565b600091505b5095945050505050565b60006000600060006122126123d8565b61221a6123d8565b60006000600360008a8152602001908152602001600020915060046000836000015481526020019081526020016000209050816000015482600101548360020160009054906101000a900473ffffffffffffffffffffffffffffffffffffffff1684600301548460000185600201818054600181600116156101000203166002900480601f01602080910402602001604051908101604052809291908181526020018280546001816001161561010002031660029004801561231d5780601f106122f25761010080835404028352916020019161231d565b820191906000526020600020905b81548152906001019060200180831161230057829003601f168201915b50505050509150808054600181600116156101000203166002900480601f0160208091040260200160405190810160405280929190818152602001828054600181600116156101000203166002900480156123b95780601f1061238e576101008083540402835291602001916123b9565b820191906000526020600020905b81548152906001019060200180831161239c57829003601f168201915b505050505090509750975097509750975097505b505091939550919395565b602060405190810160405280600081525090565b828054600181600116156101000203166002900490600052602060002090601f016020900481019282601f1061242d57805160ff191683800117855561245b565b8280016001018555821561245b579182015b8281111561245a57825182559160200191906001019061243f565b5b509050612468919061246c565b5090565b61248e91905b8082111561248a576000816000905550600101612472565b5090565b905600a165627a7a72305820c657e458e79902120d8366060687bccda21d2379eb28610c5d0ff3f9495ed2500029",
  "source": "pragma solidity ^0.4.11;\n\ncontract supply_Chain {\n    uint public _p_id =0;\n    uint public _u_id =0;\n    uint public _t_id=0;\n    struct track_product {\n        uint _product_id;\n        uint _owner_id;\n        address _product_owner;\n        uint _timeStamp;\n    }\n    mapping(uint => track_product) public tracks;\n    \n    struct product {\n        string _product_name;\n        uint _product_cost;\n        string _product_specs;\n        string _product_review;\n        address _product_owner;\n        uint _manufacture_date;\n       // uint _expiry_date;\n    }\n    \n    mapping(uint => product) public products;\n    \n    struct participant {\n        string _userName;\n        string _passWord;\n        address _address;\n        string _userType;\n        //uint rating =0;\n    }\n    mapping(uint => participant) public participants;\n    \n    function createParticipant(string name ,string pass ,address u_add ,string utype) public returns (uint){\n        uint user_id = _u_id++;\n        participants[user_id]._userName = name ;\n        participants[user_id]._passWord = pass;\n        participants[user_id]._address = u_add;\n        participants[user_id]._userType = utype;\n        \n        return user_id;\n    }\n    \n    function newProduct(uint own_id, string name ,uint p_cost ,string p_specs ,string p_review) returns (uint) {\n        if(keccak256(participants[own_id]._userType) == keccak256(\"Manufacturer\")) {\n            uint product_id = _p_id++;\n           \n            \n            products[product_id]._product_name = name;\n            products[product_id]._product_cost = p_cost;\n            products[product_id]._product_specs =p_specs;\n            products[product_id]._product_review =p_review;\n            products[product_id]._product_owner = participants[own_id]._address;\n            products[product_id]._manufacture_date = now;\n            \n           \n            \n            return product_id;\n        }\n        \n       return 0;\n    }\n    function getParticipant(uint p_id) returns (string,address,string) {\n        return (participants[p_id]._userName,participants[p_id]._address,participants[p_id]._userType);\n    }\n    function getProduct_details(uint prod_id) public returns (string,uint,string,string,address,uint){\n        return (products[prod_id]._product_name,products[prod_id]._product_cost,products[prod_id]._product_specs,products[prod_id]._product_review,products[prod_id]._product_owner,products[prod_id]._manufacture_date);\n    }\n    modifier onlyOwner(uint pid) {\n         if(msg.sender != products[pid]._product_owner ) throw;\n         _;\n         \n     }\n    function transferOwnership_product(uint user1_id ,uint user2_id, uint prod_id) onlyOwner(prod_id) public returns(bool) {\n        //require(msg.sender == products[prod_id]._product_owner);\n        participant  p1 = participants[user1_id];\n        participant  p2 = participants[user2_id];\n        //track_product  trk;\n        uint track_id = _t_id++;\n        \n        if(keccak256(p1._userType) == keccak256(\"Manufacturer\") && keccak256(p2._userType)==keccak256(\"Supplier\")){\n           /*trk._product_id = prod_id;\n            //trk._product_owner = p2._address;\n            trk._owner_id = user2_id;\n            trk._timeStamp= now;*/\n            tracks[track_id]._product_id =prod_id;\n            tracks[track_id]._product_owner = p2._address;\n            tracks[track_id]._owner_id = user2_id;\n            tracks[track_id]._timeStamp = now;\n            products[prod_id]._product_owner = p2._address;\n            \n            return (true);\n        }\n        if(keccak256(p1._userType) == keccak256(\"Supplier\") && keccak256(p2._userType)==keccak256(\"Supplier\")){\n           /*trk._product_id = prod_id;\n            //trk._product_owner = p2._address;\n            trk._owner_id = user2_id;\n            trk._timeStamp= now;*/\n            tracks[track_id]._product_id =prod_id;\n            tracks[track_id]._product_owner = p2._address;\n            tracks[track_id]._owner_id = user2_id;\n            tracks[track_id]._timeStamp = now;\n            products[prod_id]._product_owner = p2._address;\n            \n            return (true);\n        }\n        \n        else if(keccak256(p1._userType) == keccak256(\"Supplier\") && keccak256(p2._userType)==keccak256(\"Customer\")){\n\n            /*trk._product_id = prod_id;\n            //trk._product_owner = p2._address;\n            trk._owner_id = user2_id;\n            trk._timeStamp= now;*/\n            tracks[track_id]._product_id =prod_id;\n            tracks[track_id]._product_owner = p2._address;\n            tracks[track_id]._owner_id = user2_id;\n            tracks[track_id]._timeStamp = now;\n            products[prod_id]._product_owner = p2._address;\n            \n            return (true);\n        }\n        \n        return (false);\n    }\n   /* function getProduct_track(uint prod_id)  public  returns (track_product[]) {\n        \n        uint track_len = tracks[prod_id].length;\n       string[] memory trcks = new string[](track_len);\n       for(uint i=0;i<track_len;i++){\n           track_product t = tracks[prod_id][i];\n           \n           trcks.push(t._product_id+\"\"+t._owner_id+\"\"+t._product_owner+\"\"+t._timeStamp);\n       }\n        track_product tk =tracks[prod_id];\n         return trcks;\n    }*/\n    function getProduct_trackindex(uint trck_id)  public  returns (uint,uint,address,uint,string,string) {\n        \n        track_product t = tracks[trck_id];\n        product p = products[t._product_id];\n         return (t._product_id,t._owner_id,t._product_owner,t._timeStamp,p._product_name,p._product_specs);\n    }\n    \n   /* function getProduct_chainLength(uint prod_id) public returns (uint) {\n        return tracks.length();\n    }*/\n    \n    function userLogin(uint uid ,string uname ,string pass ,string utype) public returns (bool){\n        if(keccak256(participants[uid]._userType) == keccak256(utype)) {\n            if(keccak256(participants[uid]._userName) == keccak256(uname)) {\n                if(keccak256(participants[uid]._passWord)==keccak256(pass)) {\n                    return (true);\n                }\n            }\n        }\n        \n        return (false);\n    }\n}",
  "sourcePath": "C:/Users/kshat/Desktop/SupplyChainManagement-master/Final code/contracts/supply_Chain.sol",
  "compiler": {
    "name": "solc",
    "version": "0.4.11+commit.68ef5810.Emscripten.clang"
  },
  "schemaVersion": "3.4.1",
  "updatedAt": "2021-06-21T08:49:15.117Z",
  "networkType": "ethereum",
  "devdoc": {
    "methods": {}
  },
  "userdoc": {
    "methods": {}
  }
}